:020000040800F2
:100000007012002011030008D52F0008492F0008A6
:10001000D12F0008911F00087D310008000000006A
:10002000000000000000000000000000493000084F
:10003000951F00080000000045300008A1300008AE
:100040002B0300082B0300082B0300082B030008D8
:100050002B0300082B0300082B0300082B030008C8
:100060002B0300082B0300082B0300082B030008B8
:100070002B0300082B0300082B0300082B030008A8
:100080002B0300082B0300082B0300082B03000898
:100090002B0300082B0300082B0300082B03000888
:1000A0002B0300082B0300082B0300082B03000878
:1000B0002B0300082B0300082B0300082B03000868
:1000C0002B0300082B0300082B0300082B03000858
:1000D0002B0300082B0300082B0300082B03000848
:1000E0002B0300082B0300082B0300082B03000838
:1000F0002B0300082B0300082B0300082B03000828
:100100002B0300082B0300082B0300082B03000817
:100110002B0300082B0300082B0300082B03000807
:100120002B0300082B0300082B0300082B030008F7
:100130002B03000800000000000000002B03000853
:100140002B0300082B0300082B0300082B030008D7
:100150002B0300082B0300082B0300082B030008C7
:100160002B0300082B0300082B0300082B030008B7
:100170002B0300082B030008000000000000000013
:100180002B0300082B03000800F002F800F0B0F881
:1001900014A696E8000CB244B344DA4501D100F04D
:1001A000A7F8BAE80F000FA696E83000A5EB040503
:1001B00004EB0607AAEB0704A7F101074FEA1515A0
:1001C0004FEA3414A4F10104AC4201D300F090F8DA
:1001D00013F0010F18BFFB1A43F0010300F001F800
:1001E000DBE71847F03B0000103C0000103A24BF4A
:1001F00078C878C1FAD8520724BF30C830C144BF8C
:1002000004680C6070470000704700000023002461
:1002100000250026103A28BF78C1FBD8520728BF16
:1002200030C148BF0B6070476E2900F0DD81702936
:1002300000F01383662903F02E85652903F02B85D2
:10024000672903F02885612903F0278503681B0AC5
:1002500028BF41F08001692900F08A81642900F0FB
:100260008781752900F084816F2900F0A1827829A7
:1002700000F0DF82E92900F03B82E42900F03882B7
:10028000F52900F03582EF2900F09E82F82900F070
:10029000DE820368DB0928BF41F08001632900F09A
:1002A000F787732900F0FC87E32901F00780F32921
:1002B00001F00C80002070471FB503F0DFFC9DE8C3
:1002C000030001F0EDFB01F0F7F80400002000212D
:1002D00003F0BEFC401C60600020002103F0A2FC83
:1002E000E06000F0FBFF1FBD10B501F060F810BD2D
:1002F00001F0B4F81146FFF7DFFF02F089FF01F0CB
:100300006BFB03B4FFF7F0FF03BC01F087FD0000B7
:100310000948804709480047FEE7FEE7FEE7FEE799
:10032000FEE7FEE7FEE7FEE7FEE7FEE704480549D5
:10033000054A064B70470000693100088901000832
:100340007006002070120020700A0020700A002041
:1003500053EA020C00F069802DE9F04B4FF00006E3
:10036000002B1FBFB3FA83F503FA05F424FA05F650
:100370005E4012BF1643B2FA82F502FA05F4C5F1E7
:1003800020051EBF22FA05FC44EA0C04203556EA7B
:10039000044C4FEA144418BF641C4FF000084FF09F
:1003A0000009904271EB030C39D3002919BFB1FA4F
:1003B00081F701FA07F6B0FA80F700FA07F6C7F1FD
:1003C00020071EBF20FA07FC46EA0C062037B6FBC2
:1003D000F4FCA7EB0507103F07F01F0BCBF120063D
:1003E0002CFA06F60CFA0BFB44BFB3460026202F6E
:1003F000A4BF5E464FF0000B5BEA060C08BF4FF04F
:10040000010B19EB0B0948EB0608ABFB027C06FB62
:1004100002CC0BFB03CCC01B71EB0C01C1E70B46FC
:10042000024641464846BDE8F08B13B5084318BF65
:100430004FF0FF300146AFF30080BDE81C4070472D
:100440000FB4044910B503AA029800F0E1F810BCFB
:100450005DF814FB940000204FF0000200B5134635
:1004600094469646203922BFA0E80C50A0E80C50D4
:10047000B1F12001BFF4F7AF090728BFA0E80C5085
:1004800048BF0CC05DF804EB890028BF40F8042B7E
:1004900008BF704748BF20F8022B11F0804F18BFEB
:1004A00000F8012B704770477047704770B50446DD
:1004B00085690068C10601D5302600E02026C00706
:1004C00007D070BDD4E9012130469047206A401C16
:1004D00020626D1EF6D570BD70B504468569007842
:1004E000C00707D170BDD4E9012120209047206AC0
:1004F000401C20626D1EF6D570BD09684A0501D505
:1005000040B27047C905FCD500B2704709684A057A
:1005100001D5C0B27047C905FCD580B2704770B52F
:100520000C460546012A05D02878800600D5EA69E0
:10053000002302E0012305E05B1C934202D2E05C51
:100540000028F9D1A869E618C01AA861286A1844D9
:1005500028622846FFF7AAFF04E0D5E9012114F834
:10056000010B9047B442F8D32846FFF7B5FF70BDA2
:100570002DE9F0410646002410687529314616A57C
:1005800010D0FFF7BAFF002802DA404213A507E0B7
:1005900031688A0701D512A502E0490704D511A5E3
:1005A000012401E0FFF7B2FF00210A2206F124072F
:1005B00009E0B0FBF2FCB0FBF2F302FB1C003030B0
:1005C00078541846491C0028F3D123462A46304661
:1005D000BDE8F04100F055BA000000002D00000019
:1005E0002B0000002000000011680268006A53051B
:1005F00001D508700AE0D30501D5088006E013068E
:1006000003D5C217C1E9000200E00860012070476D
:10061000074B70B50D467B4400F01DFE044628468E
:1006200000F058FE10B14FF0FF3070BD204670BD95
:10063000ED3500002DE9FF5F15468A460446DFF8D8
:10064000AC80F8440027D8E900103E46CDE9001000
:1006500010E03AF816106A4602A800F0DBFE411CD2
:1006600007D02178890603D5E269391891420DD85F
:100670000744761C2078800602D5E069B84205DD83
:10068000AE42E6DB3AF816000028E2D1A069C01BB2
:10069000A0612046FFF70AFFD8E90010CDE900105D
:1006A000002017E03AF818106A4602A800F0B2FEDF
:1006B000B0F1FF3F81460BD000250DF1080B05E09E
:1006C000D4E901211BF8050090476D1C4D45F7D377
:1006D00008F10100B0428046E4DB206A3844206221
:1006E0002046FFF7F9FEBDE8FF9F00005A360000E4
:1006F0002DE9F0418046D21D22F007020025D2E903
:100700000002F52915A614D0011E72F1000106DAC7
:100710000023D0EB030063EB020211A608E0D8F837
:1007200000108B0701D50FA602E0490701D50EA6E0
:1007300001251146002408F1240704E000F05CF9CB
:1007400030323A55641C50EA0102F7D12B4632464A
:1007500021464046BDE8F04100F093B9000000009A
:100760002D0000002B0000002000000030B400210C
:1007700000F1240408E002F00705D208303542EA0F
:100780004372DB086554491C52EA0305F3D104683F
:10079000002310A2250708D504F020040C4304D040
:1007A000C46901230CA2641EC46130BC00F069B9A5
:1007B00010B5044621461068FFF7A8FE0246204601
:1007C000BDE810400023D1E7D21D22F00701D1E996
:1007D0000023CBE70000000030000000F0B40D461D
:1007E0000188090502D5214C7C4402E01F4C7C4461
:1007F0000E34002100F1240608E002F00F07120970
:10080000E75D42EA03721B097754491C52EA030769
:10081000F3D102780023120704D5702D06D009B158
:10082000022311342246F0BC00F02BB9012310340E
:10083000F8E770B504460D4621461068FFF766FEDE
:10084000024629462046BDE870400023C6E7D21D77
:1008500022F00703D3E90023C0E70368126843F0DE
:10086000200303600823C3610023B7E7BC34000002
:100870002DE9F05F894604464FF0000ADFF874B1B5
:10088000FB44C0F820A02046E1688847002874D0C7
:10089000252806D0D4E901219047206A401C206217
:1008A000F1E700265F462046E16888472028054694
:1008B00007DB312D05D2781910F8200C08B106435A
:1008C000F1E7B00701D526F00406C4F81CA0002704
:1008D000C4F818A02A2D09D0284603F08DF938B3A2
:1008E00004EB8708303DC8F8185019E059F8041B8C
:1008F000204604EB87029161E1688847012F054695
:1009000018D1E069002820DA26F020061DE0D8F88A
:10091000180000EB800005EB40003038C8F81800E4
:100920002046E1688847054603F066F90028EED1C5
:10093000012F0AD02E2D08D12046E16888477F1C60
:100940000546022F46F02006C4DBA069002803DA22
:10095000404246F00106A061F00701D026F01006E3
:100960006C2D0BD0682D09D04C2D39D06A2D35D087
:10097000742D35D07A2D33D016E038E0E1682F465B
:1009800020468847B842054609D16C2F26D04FF43F
:100990008060E168064320468847054604E06C2FE6
:1009A0001AD04FF4807006430DB3A5F14100192809
:1009B00002D8203546F400664A462946204626607D
:1009C0004E46FFF731FC80B101280BD0F61D26F012
:1009D000070000F1080956E74020E4E78020D8E747
:1009E0000020D6E706F104094DE7284652E7206AC1
:1009F000BDE8F09F4C34000030B5B0F10A0271F14F
:100A000000034FEA900E4EEA817EB0EB0E0061EBE0
:100A100091014FEA101E4EEA017E10EB0E0041EBF1
:100A200011114FEA102E4EEA016E10EB0E0041EB51
:100A300011214FEA104E4EEA014E10EB0E0041EB31
:100A40001141401841F100014FEAD00040EA4170E5
:100A50004FEAD1014FEA810444EA907410EB80051B
:100A600044EB01046D1944EB0404521BA3414FF005
:100A7000000348BF0A3200D530BD401C41F10001DF
:100A800030BD2DE9F0470D4699469246044600F1E7
:100A900024080168880604D5E06921F0100121606E
:100AA00000E00120A84201DD471B00E00027A1690A
:100AB0007A1902EB0900081AA0612078C00602D456
:100AC0002046FFF7F3FC002608E0D4E901211AF8DC
:100AD00006009047206A401C761C20624E45F4DBDD
:100AE0002078C0060AD52046FFF7E0FC06E0D4E9EE
:100AF000012130209047206A401C2062381EA7F157
:100B00000107F4DC07E0D4E9012118F8050090475B
:100B1000206A401C2062281EA5F10105F3DC204656
:100B2000FFF7DAFC2078000602D50220BDE8F08746
:100B30000120FBE72DE9FF4F0C461E464FF0FF3723
:100B40008BB0D2E90001DDF860800A908A46C1F3DB
:100B50000A5505B93D46002108464FF00000BAF19C
:100B6000000F00F4400005DA00EB80004FF4400174
:100B700001EA50004FEA9059B9F1010F00DDB94682
:100B80000A9850EA4A000ED044F61050A5F2FF35FC
:100B900045432F14B8F1000F1ED07542291E1EDDEB
:100BA000C9F100021CE0B8F1010F4FF0000001D0C4
:100BB000302103E0F24305E02154401CB042FBDB4E
:100BC00030460022002121540B99C1F80880C1E968
:100BD00000200FB0BDE8F08FBD1B6D1CDEE74A465C
:100BE00000DA694206A800F0D3FC06AB93E80700E0
:100BF00003AB83E8070050460A9902F01DFC8DE81C
:100C00000700A0F500501F3800900398002D0ADD62
:100C100042F21F014A460844002303A90390684694
:100C200002F086FE09E0A0F500504A461F38002376
:100C300003A90390684602F090FE8DE807000004C7
:100C4000000C03D04FF0FF30410800E01046B8F12F
:100C5000000F03D00022009215461EE0751E05D439
:100C6000FFF7CAFE303262556D1EF9D5B346012238
:100C7000084302D000227F1C04E02078302801D1F4
:100C800000227F1E002A099784D01DE0112D07DA6B
:100C9000FFF7B2FE303262556D1C50EA0102F5D109
:100CA000084302D00098C8B10EE00021681E05E09C
:100CB000235C625C63542254401E491C8142F7DB72
:100CC000AB46A81B401E0990002004F80B000B98AF
:100CD000099AC0F80880C0E9002B7AE711264FF086
:100CE000000857E72DE9F04F88460446D21D22F050
:100CF000070191B0D1E90001CDE90A0102F064FFDA
:100D000002460B98C00F01D02D2007E02068810714
:100D100001D52B2002E0202101EAC000032A09901E
:100D200001D0072A05DB03464146204600F0F0FBD0
:100D30000BE12078800601D5E06900E00620B8F1DB
:100D4000650F814606D0B8F1660F18D0B8F1670F6D
:100D500070D131E00020B9F1110F009001DB1123B7
:100D600001E009F101030AAA01A90CA8FFF7E2FEBC
:100D7000DDE90C70002609F10105834647E00120FA
:100D80004B4600904FF000470AAA01A90CA8FFF7B4
:100D9000D1FEDDE90DB00C995D46002610B909F1D0
:100DA00001000D18B9EB050003D4C0F1FF3609F1BD
:100DB0000105A5EB09002BE0B9F1010F01DA4FF0B5
:100DC00001090020B9F1110F0090484601DD1123FF
:100DD00000E003460AAA01A90CA8FFF7ABFEDDE973
:100DE0000C704D4600268346207800070AD4AB4598
:100DF00000DA5D4601A8012D04DD411911F8011C3E
:100E0000302907D04F4502DA17F1040F04DA012028
:100E100082460FE06D1EEEE7002F02DCED1B3E4424
:100E200003E0781CA84200DD7D1CB81B00F1010A1C
:100E30004FF000472078000703D4AA4501DB4FF0AC
:100E4000FF3A0021B7F1004F0DF143088DF8431030
:100E500024D002202B23002F01DA7F422D230A21E8
:100E6000021EA0F1010000DC5FB197FBF1FC97FBD3
:100E7000F1F201FB1C7C17460CF1300C08F801CD97
:100E8000EEE7A8F1010003702188090501D545218D
:100E900000E06521A0F1010800F8011C09980FA9E4
:100EA000A1EB0807FF1D00B10120411901EBEA7019
:100EB000A1693844081A401EA0612078C00602D4F7
:100EC0002046FFF7F3FA099828B1D4E901219047A9
:100ED000206A401C20622078C00622D52046FFF7F9
:100EE000E5FA1EE0002E04DBB34502DD01A8805DBB
:100EF00000E03020D4E901219047206A401C2062A4
:100F0000761CAAF101005FEA000A0AD100F0D4FAC7
:100F1000C0680168405CD4E901219047206A401C08
:100F20002062281EA5F10105DCDC07E0D4E90121DF
:100F300018F8010B9047206A401C2062381EA7F168
:100F40000107F3DC2046FFF7C7FA032011B041E6A2
:100F50002DE9F04F04460D46D21D22F0070089B05E
:100F6000D0E900974846394602F02EFE0246F80FB7
:100F700001D02D2307E02068810701D52B2302E053
:100F8000202101EAC0038DF820300BB1012000E0E0
:100F90000020032A824601D0072A04DB2946204686
:100FA00000F0B6FA3FE12078800601D40D2500E07C
:100FB000E569C7F30A560D2D49DA00214FEA175BA0
:100FC00008464FF00000002F00F4400007DA00EB65
:100FD00080004FF4400100EBD07001EA6000811501
:100FE000012901DD4FF0FF3100224FEA850CBCF1F1
:100FF000180F06D31346ACF118004FF08052C240D0
:1010000003E04FF4801323FA0CF30CF10C0CBCF149
:10101000200F04D3ACF1200C09FA0CF001E007FA20
:101020000CF000294FF0004801DD18B90FE00ED197
:1010300040450CD319EB02095F4121B9404502D16B
:101040009F4329EA0209BBEB175F00D0761C20887A
:10105000000502D57B48784402E07A487844193884
:1010600008AA302302F80A30037C0AF10101002E9D
:101070000AF1020A53546A4602DC4FF0300101E0E3
:101080004FF031014FF001088DF8001002D0A6F2A8
:10109000FF3603E059EA470100D06B4E002D02DC19
:1010A0002178090704D54FF002082E218DF8011090
:1010B000C44600210BE0C7F303433F01C35C491C56
:1010C0006D1E02F80830052908F1010801DA002D2B
:1010D000F1DC00210CE000EB1973491C1B786D1E3C
:1010E000082902F808304FEA091908F1010801DA65
:1010F000002DF0DC21688B0602D516E0A8F101086E
:10110000E04505DD02EB080313F8013C302BF5D078
:10111000B8F1000F09DD02EB080313F8013C2E2B98
:1011200003D1090701D4A8F10108002D05DD3E21F6
:1011300002F808106D1E08F10108407C002E02F82C
:10114000080008F1010804DA2D20764202F80800B0
:1011500002E02B2002F808000A214FF47A70864240
:1011600008F101080BDB96FBF0F3303302F808308E
:1011700096FBF0F308F1010800FB136601E0642E12
:101180000CDB642096FBF0F3303302F8083096FB5A
:10119000F0F308F1010800FB136601E00A2E06DBFC
:1011A00096FBF1F0303002F8080008F1010896FBD8
:1011B000F1F001FB1060303002F80800A16908F17D
:1011C000010808EB050202EB0A00081AA06120786A
:1011D000C00602D42046FFF769F9216A08AE01EB88
:1011E0000A00206204E0D4E9012116F8010B9047BF
:1011F000BAF1010AF7D22078C00602D52046FFF7DF
:1012000055F96E4609E016F8010B3E280FD0D4E9D7
:1012100001219047206A401C2062B8F10108F2D2F7
:101220002046FFF759F909B00320BDE8F08F206A86
:101230002844206203E0D4E90121302090476D1E4C
:10124000EBD3F8E79A2C000002FCFFFF01694A1C6F
:1012500002610878704700B58FB0CDE901310021F7
:10126000059105497944CDE9031011466846FFF719
:10127000FFFA0FB000BD0000E5FFFFFF10B54369A6
:1012800013B1AFF3008001E0FFF749F9012010BD71
:10129000127800F124010A7000224A700122EDE761
:1012A00011684FF0FF32E9E710B5436913B1AFF3AE
:1012B000008001E0FFF7BEF9012010BD128800F1A7
:1012C000240182840022C2840122EDE711684FF0DC
:1012D000FF32E9E7007B00F08000704710B542481C
:1012E0005421FFF7B9F841485421FFF7B5F84048B9
:1012F0005421FFF7B1F83F493B483C4A3F4B086057
:101300003D490A603A491960531C0365481C106541
:10131000012008653B48344A39A1784400F0BEFA00
:1013200020B9384878440A3800F05FFB37482F4A24
:1013300035A1784400F0B2FA20B9344878440A382C
:1013400000F053FB32482A4A2FA1784400F0A6FA55
:1013500020B92F4878440A3800F047FB4023224840
:10136000DC000021224600F076FA20B125487844BE
:10137000543800F03AFB1D4822464023002100F07B
:101380006AFA20B121487844543800F02EFB1848FE
:1013900022461023002100F05EFA002806D01C48E7
:1013A0007844BDE81040563800F01FBB10BD10480F
:1013B00070B5006D20F001040B4800F0E7FA0B480F
:1013C00000F0E4FA0A4800F0E1FA09E0206D20F0AC
:1013D0000105204600F0DAFA204600F071F82C46AC
:1013E000002CF3D170BD00004000002094000020CC
:1013F000E800002000000020040000200800002079
:1014000072000000E929000077000000D5290000E3
:10141000C12900002DE9F04116460C46054600F0B2
:1014200043F8036893F80101012807D0FF2C12D874
:10143000185D80B101202C70BDE8F081D3F8070160
:101440003246214603F20713C7182846BC46BDE8BA
:10145000F041002360474FF0FF30EDE7754600F0A4
:10146000FFFAAE4605006946534620F00700854660
:1014700018B020B5FEF75AFFBDE820404FF0000637
:101480004FF000074FF000084FF0000BAC46ACE8FF
:10149000C009ACE8C009ACE8C009ACE8C00921F05B
:1014A00007018D467047000010B500F005F8001DDB
:1014B00010BD00BF9D270000004870475C01002060
:1014C00070B50446051F00F0CFFA0068002C14BF69
:1014D000446870BD002C18BFAC423CBF2046646815
:1014E000F8D301680A18AA4218BF456003D12A68D8
:1014F00005461144016028684119A1421CBF6C6077
:1015000070BD6168696021680844286070BD000092
:101510002DE9F0411F46044603260168072A01F41D
:10152000006004DB08B116A505E016A503E008B1CC
:1015300015A500E015A521F010002060A069C01ECF
:10154000A0610FB1401EA0612046FEF7AFFF4FB172
:10155000D4E9012138469047206A401C2062C01C13
:10156000206206E0206AFAE7D4E9012115F8010BB0
:101570009047761EF8D22046FEF7AEFFBDE8F08118
:101580004E414E006E616E00494E4600696E660027
:101590002DE9F047814616468AB0354878440DC893
:1015A0008DE80D0032487844801C03AC0DC884E8F7
:1015B0000D0041F69B300844372190FBF1F290FB7F
:1015C000F1F5A5F1800501FB12041B3C02D5644234
:1015D000012000E00020DFF898A080460027FA44B0
:1015E000AAF1BE0A0EE0E0070AD03246684607EBD1
:1015F000470101230AEB810102F0AFF98DE80700F2
:1016000064107F1C002CEED1194F7F44AE3F19E0CF
:10161000E80715D007EB04100DF1180A90E80E004A
:101620008AE80E00C068F04201D19819089032464D
:10163000012306A903A802F090F903AB83E8070091
:101640006D10641C002DE3D14FF001033246694652
:10165000B8F1000F03A802D002F06AF901E002F02D
:101660007CF9C9E90001C9F808200AB0BDE8F08793
:10167000F02700002DE9F05F054617460C46C868C4
:1016800020F4201040F48000C860800602D508468F
:1016900000F043FBE06841F282014FF0FF3A014065
:1016A000022903D0204600F0D5FAB9E000F4204129
:1016B000B1F5004F0FD1C00306D56168E06A8842DA
:1016C00000D80846606006E02069E06260606069FA
:1016D00000F0BFF9A061A0680022EEB200280DDA88
:1016E000E1688B050AD4C043A06041F490302260C9
:1016F000E0606068411C61600670AAE0E0689146A5
:10170000226040F40050E060206978BB606900F01E
:1017100092F904F124054FF00108A8B1A08910F452
:10172000407F08D0E06900F0EAF9206118B1E06874
:1017300040F4006017E0C4F81C802561E06820F4E4
:10174000407040F480600EE0E06900F0D8F90028B5
:101750002061F0D0E06840F4006010F4407FE06069
:1017600002D140F48070E06020696060E068256923
:101770006FF0010BC1051ED56168E06A884200D890
:101780000846411B04D02246284600F06DFAE8BB0B
:101790001FB1E562C4E9015959E0681CE06260606C
:1017A000E069401EA060E06840F48030E0603046B0
:1017B0002E70BDE8F09F17B100F480320AE0606837
:1017C000411C61600670E0680A2E40F48030E060E1
:1017D00006D00022E16A6068814203D90B4602E02C
:1017E0000122F7E70346B4F80CC05B1B5FEA4C5CD0
:1017F00004D4D4F81CC09C4500DD02B3814200D85B
:101800000146002BA1EB0008E56200E008E0C4E916
:10181000015907DD22461946284600F025FA08B18D
:101820005046C6E7B8F1000F09D0A169E5626560CE
:10183000A1EB0800A061E06840F01000E06047B153
:101840006168A069E562491B08446560A06158466B
:10185000AFE73046ADE770B5C468A50713D06502A1
:1018600011D4B2F5807F09D0B2F5007F06D0B2F571
:10187000806F08D1012300F1240106E05D1E6FF0A6
:101880007F46B54201D3012070BD0161C361416053
:1018900024F470611143C160002070BD2DE9F04156
:1018A0000C461646070047D0104600F06FF8207827
:1018B000611C61280AD0722802D077283CD102E04E
:1018C0000125002405E00225042402E0082448F252
:1018D000020511F8010B2B2806D0622809D011F857
:1018E000010C74280AD00BE045F0030544F0020413
:1018F000EFE745F0040544F00104EAE744F0100482
:101900003846214600F078F8411C15D0002131619D
:1019100071604FF40071F560F1617061200704D5CA
:1019200030460222002100F019F9306D40F001002C
:1019300030653046BDE8F0810020FBE72DE9F0413D
:101940000D460646104C206DC10704D0410804D056
:1019500020F00104F7E722460EE0542000F0CFF813
:1019600007000ED0206D47F0010108435421206587
:101970003846FEF771FD3A4629463046BDE8F0414B
:101980008CE70020D6E70000400000202DE9F0475A
:1019900004464FF0FF380026C568D4E90497A8072D
:1019A00018D0204600F096F9384600F02FF80028AD
:1019B00000DA4646280502D54846FFF781FD4C214E
:1019C0002046FEF749FD206D20F0010020653046DD
:1019D000BDE8F0874046FBE710B50446AFF3008052
:1019E0002046BDE81040FEF78CBC10B500F0BCF9F5
:1019F000BDE8104000F0B2B90EB5CDE9000100F02D
:101A000075FA029069460120ABBE0EBD08B5694665
:101A100000900220ABBE08BD1FB58DE807006946E7
:101A20000520ABBE04B010BD1FB58DE80F006946A0
:101A30000620ABBEF6E708B5694600900920ABBEAC
:101A400008BD1CB5CDE9000169460A20ABBE1CBD2E
:101A5000704708B5694600900C20ABBE08BD000079
:101A6000004870473C0100200048704744010020B6
:101A7000704770477047704738B504460A460020E3
:101A80006946AFF30080002808BF38BD02460099C0
:101A9000204600F0D0F9012038BD012000F01FBA27
:101AA000F8B5AFF30080054600200C460C2000BFBF
:101AB0000646A819A0420DD9324669460020AFF368
:101AC0000080070008BF00F00AFA0098A04218BF83
:101AD0000546C419FFF7C8FF05600746F01D20F052
:101AE00007004619284600F0A0F9B44208BFF8BD27
:101AF000A21B31463868BDE8F84000F09CB970B5CB
:101B00000646FFF7B1FF056806F10B0020F0070459
:101B1000B4429CBF002070BD2B466A68BAB1106801
:101B2000A04210D304F1080188423CBF50685860BD
:101B300007D35168101941601168091B0160586092
:101B40001460101D70BD13465268002AE7D121466B
:101B50002846FFF791FF0028DED170BD2DE9F04146
:101B6000044616460D464769007B80072ED038464E
:101B7000FFF761FF50BB3EB3012E02D0022E25D1EC
:101B800004E0204600F071F905441DE03846FFF7F7
:101B900060FFE168002841F01001E16005DA2046AD
:101BA00000F058F80120BDE8F081C9030BD5626848
:101BB000E16A914200D81146A26911442269891A4A
:101BC000814200DD08460544002D01DA0220EAE7E3
:101BD000E16A6068E268814206D29103E06203D55F
:101BE00022F4003141F01002A6690027AE4213DC56
:101BF000E16A814201D90B4600E0034603EB060C83
:101C00002369ACEB030CAC4506DD814201D98C465F
:101C100000E084469C4505D1A760276042F0200083
:101C2000A5620DE0AD1BE669AE1B8142A66000D93E
:101C30000846C01A281A20605819606022F0200057
:101C400003490840E060002084F84870ABE70000DA
:101C5000BFCFD7FFC16821F4001141F08001C160FE
:101C600000218160016070472DE9F74F15460C4651
:101C70004FF0FF3B3848D768D2F814A0074209D08C
:101C80005046A969FFF7DDFE002819DB3248C04342
:101C90000740EF604FF000496FF000484C4501D31A
:101CA000464600E0264600993B4650463246FFF73E
:101CB000B3FEA96920F00042B21A1144A96128B10B
:101CC0002846FFF7C7FF5846BDE8FE8FA41BE5D1A5
:101CD0000020F9E770B504460569C06A616888426A
:101CE00000D80846E16821F42011E160C90312D54B
:101CF000A84208D02246411B2846FFF7B5FF10B185
:101D00004FF0FF3070BD0020E562C4E90150E0688B
:101D100020F48030E060002070BD10B50446C0683B
:101D200020F02000E060A16AA06988420DD0204622
:101D3000FFF7D0FFE06820F4405040F01000E06072
:101D4000A06AA0612069E062606044F24001E0683E
:101D50008843E06010BD000010000200002801D0A0
:101D600000F05CB87047000010B5014602A000F01A
:101D70009DF8012010BD000053494752545245447C
:101D80003A2052656469726563743A2063616E2714
:101D900074206F70656E3A200000000000000000A3
:101DA00030B44FF0013C50F8042B51F8043BCCFA0E
:101DB00052F4D51A20D1FCB950F8042B51F8043B49
:101DC000CCFA52F4D51A17D1B4B950F8042B51F803
:101DD000043BCCFA52F4D51A0ED16CB950F8042B4E
:101DE00051F8043BCCFA52F4D51A05D1002CDAD0C4
:101DF00030BC4FF00000704729BAB1FA81F111F000
:101E00001801D1F120008440F2D1CA40CB4012F039
:101E1000FF0213F0FF0330BCD01A704701491820AD
:101E2000ABBEFEE726000200704700210160416062
:101E300070470C207047034640688C46002818BF46
:101E400088423CBF03464068F8D31868184488426B
:101E500007D00CF1030020F00700001D411A521AB0
:101E60000146081D0A60FFF72BBB10B50146C2688A
:101E7000900703D0900607D5886A0AE000F05CF866
:101E800001210160881E10BD8B69486818440B69E8
:101E9000C01A91F848301BB191F84910401A10BD92
:101EA0001103FCD50028FADD401E10BD70B50546B3
:101EB0000C460A2000E06D1C00F037F835B1287898
:101EC0000028F8D102E0641C00F02FF814B120784B
:101ED0000028F8D1BDE870400A2000F026B810B5FF
:101EE00000F02EF8BDE81040FFF738BF10B5431CD6
:101EF00002E010F8011B71B18107FAD14FF00132F5
:101F000002C88C1A8C4314EAC211F9D0C01A0A060E
:101F100003D0C01E10BDC01A10BD0A0401D0801E1F
:101F200010BD0902FCD0401E10BD08B569468DF8F1
:101F300000000320ABBE08BD004870473C010020F4
:101F400010B5012805D0002103A0FFF7AFFF012045
:101F500010BD09A1F8E7000053494752544D454DC3
:101F60003A204F7574206F662068656170206D653A
:101F70006D6F7279000000003A2048656170206D35
:101F8000656D6F727920636F72727570746564002D
:101F9000FFE7FEE77047000072B6FFE7FEE70000CC
:101FA00080B584B0039000F011FA0290039801907C
:101FB0000198013048B1FFE740F21400C2F200007E
:101FC0000178019808440190FFE7FFE700F0FEF96F
:101FD0000299401A0199884201D2FFE7F6E704B05E
:101FE00080BD00008EB00D900C9100200A900990E9
:101FF00008900B90FFE70B980F2800F2CC81FFE7C9
:102000000B99012088400A900C9800680A990840B2
:10201000099009980A99884240F0B881FFE70C9826
:10202000406800F00300012807D0FFE70C984068E3
:1020300000F0030002282FD1FFE70D988068089078
:102040000B984100032000FA01F10898884308909A
:102050000C98C0680B99490000FA01F108980843F0
:10206000089008980D9988600D98406808900B9921
:10207000012000FA01F10898884308900C98406804
:10208000C0F300100B9900FA01F10898084308907A
:1020900008980D994860FFE70C98406800F003002D
:1020A000032818D0FFE70D98C06808900B984100EE
:1020B000032000FA01F10898884308900C98806882
:1020C0000B99490000FA01F1089808430890089814
:1020D0000D99C860FFE70C98406800F003000228E3
:1020E00026D1FFE70D980B996FF0030202EA510128
:1020F0000844006A08900B9800F0070081000F2048
:1021000000FA01F10898884308900C9800690B992F
:1021100001F00701890000FA01F1089808430890CE
:1021200008980D990B9B02EA530211440862FFE7DD
:102130000D98006808900B984100032000FA01F107
:102140000898884308900C98406800F003000B99A9
:10215000490000FA01F108980843089008980D9981
:1021600008600C9880798007002800F00E81FFE756
:10217000FFE70020079043F64400C4F20200016824
:1021800041F480410160006800F4804007900798A6
:10219000FFE70B9820F0030043F60801C4F20101A9
:1021A000405808900B9800F0030081000F2000FABF
:1021B00001F10898884308900D980021C4F20201AB
:1021C000884203D1FFE7002006905EE00D9840F2C0
:1021D0000041C4F20201884203D1FFE701200590CB
:1021E00050E00D9840F60001C4F20201884203D18C
:1021F000FFE70220049042E00D9840F60041C4F24F
:102200000201884203D1FFE70320039034E00D98D8
:1022100041F20001C4F20201884203D1FFE7042029
:10222000029026E00D9841F20041C4F2020188427A
:1022300003D1FFE70520019018E00D9841F6000159
:10224000C4F20201884203D1FFE7062000900AE0B1
:102250000D9941F60042C4F202020820914208BFE3
:1022600007200090FFE700980190FFE70198029097
:10227000FFE702980390FFE703980490FFE70498B4
:102280000590FFE705980690FFE70698C0B20B9906
:1022900001F00301890000FA01F108980843089051
:1022A00008980B9921F0030143F60802C4F20102D9
:1022B000885043F60840C4F201000068089009996C
:1022C0000898884308900C988079C006002805D5A6
:1022D000FFE70999089808430890FFE7089843F634
:1022E0000841C4F20101086043F60C40C4F2010049
:1022F0000068089009990898884308900C9880799C
:102300008006002805D5FFE709990898084308903A
:10231000FFE7089843F60C41C4F20101086043F658
:102320000440C4F2010000680890099908988843A5
:1023300008900C9880798007002805D5FFE7099957
:10234000089808430890FFE7089843F60441C4F250
:102350000101086043F60040C4F2010000680890E3
:1023600009990898884308900C988079C00728B18B
:10237000FFE70999089808430890FFE7089843F693
:102380000041C4F201010860FFE7FFE7FFE70B9897
:1023900001300B902FE60EB07047000082B0019024
:1023A000ADF802108DF801209DF8010028B1FFE77B
:1023B000BDF802000199886105E0BDF80200000443
:1023C00001998861FFE702B07047000040F2686041
:1023D000C2F200000068704740F21400C2F2000030
:1023E000027840F26861C2F2000108681044086097
:1023F0007047000080B543F60041C4F2020108684E
:1024000040F400700860086840F480600860086864
:1024100040F480700860032000F080F80F2000F086
:1024200005F800F03BF8002080BD000080B582B0C8
:10243000009040F20C00C2F20000006840F214016B
:10244000C2F200010A784FF47A71B1FBF2F1B0FBED
:10245000F1F000F071FD20B1FFE701208DF80700D9
:1024600018E000980F280DD8FFE700994FF0FF30D3
:10247000002200F039F8009840F21801C2F2000181
:10248000086003E001208DF8070003E000208DF8CC
:102490000700FFE79DF8070002B080BD82B0FFE7AC
:1024A0000020019043F64400C4F20200016841F4A8
:1024B00080410160006800F4804001900198FFE7CE
:1024C000FFE70020009043F64000C4F202000168DC
:1024D00041F080510160006800F080500090009849
:1024E000FFE702B07047000080B586B08DF8170096
:1024F000049103920020029000F042FE02909DF9A8
:102500001700019002980499039A00F065FD0146B6
:10251000019800F03DFE06B080BD000080B582B09D
:102520000190019800F056FE02B080BD80B584B0E5
:1025300002900191029820B9FFE701208DF80F0069
:1025400021E1019843F60041C4F20201096801F05B
:102550000701884212D9FFE7019943F60040C4F20F
:1025600002000170006800F007000199884204D061
:10257000FFE701208DF80F0005E1FFE702980078E2
:10258000800700282AD5FFE7029800784007002836
:1025900009D5FFE743F60801C4F20201086840F4D8
:1025A000E0500860FFE7029800780007002809D58E
:1025B000FFE743F60801C4F20201086840F46040F6
:1025C0000860FFE743F60801C4F20201086820F042
:1025D000F000029A926810430860FFE702980078C2
:1025E000C00700286ED0FFE702984068012811D18B
:1025F000FFE743F60000C4F20200006800F4003177
:102600000020B0EB514F04D1FFE701208DF80F00FF
:10261000B9E02CE002984068022805D0FFE7029854
:102620004068032811D1FFE743F60000C4F202001E
:10263000006800F000710020B0EB516F04D1FFE79B
:1026400001208DF80F009EE010E043F60000C4F278
:102650000200006800F002010020B0EB510F04D12D
:10266000FFE701208DF80F008DE0FFE7FFE743F65D
:102670000801C4F20201086820F00300029A5268BF
:1026800010430860FFF7A2FE0090FFE743F6080042
:10269000C4F20200006800F00C0002994968B0EB37
:1026A000810F0ED0FFE7FFF791FE0099401A41F22B
:1026B0008931884204D3FFE703208DF80F0062E0E0
:1026C000E4E7FFE7019843F60041C4F2020109681C
:1026D00001F00701884212D2FFE7019943F600405A
:1026E000C4F202000170006800F0070001998842FE
:1026F00004D0FFE701208DF80F0044E0FFE70298C7
:102700000078400700280CD5FFE743F60801C4F223
:102710000201086820F4E050029AD2681043086071
:10272000FFE702980078000700280DD5FFE743F681
:102730000801C4F20201086820F46040029A12699C
:1027400040EAC2000860FFE700F022F843F6080103
:10275000C4F202010968C9B20A0943F6A851C0F6D9
:102760000001895CC84040F20C01C2F2000108601F
:1027700040F21800C2F200000068FFF757FE002088
:102780008DF80F00FFE79DF80F0004B080BD00003A
:1027900080B586B00020059004900390029043F627
:1027A0000800C4F20200006800F00C00014601912C
:1027B00040B1FFE7019804280AD0FFE701980828F4
:1027C0000CD04FE042F20040C0F2F40002904FE023
:1027D00047F64000C0F27D10029049E043F6040045
:1027E000C4F20200016801F03F0105910068400257
:1027F000002813D5FFE743F60400C4F20200006886
:10280000C0F3881047F64001C0F27D11A0FB010122
:10281000059A0023FDF79CFD049012E043F60400A6
:10282000C4F202000068C0F3881042F20041C0F216
:10283000F401A0FB0101059A0023FDF789FD049036
:10284000FFE743F60400C4F20200006800F44031E0
:10285000022000EBD130039004980399B0FBF1F013
:10286000029005E042F20040C0F2F4000290FFE75F
:10287000029806B080BD000080B586B00490049830
:1028800020B9FFE701208DF8170050E30498007885
:10289000C007002800F0A580FFE743F60800C4F257
:1028A0000200006800F00C00042813D0FFE743F694
:1028B0000800C4F20200006800F00C0008281ED1D5
:1028C000FFE743F60400C4F202000068400200285B
:1028D00015D5FFE743F60000C4F20200006800F4DB
:1028E00000310020B0EB514F08D0FFE7049840685A
:1028F00020B9FFE701208DF8170018E370E0FFE72B
:1029000004984068B0F5803F09D1FFE743F6000125
:10291000C4F20201086840F48030086020E00498A6
:102920004068B0F5A02F0DD1FFE743F60001C4F2D7
:102930000201086840F480200860086840F4803094
:1029400008600CE043F60001C4F20201086820F4BC
:1029500080300860086820F480200860FFE7FFE707
:10296000FFE704984068E8B1FFE7FFF72FFD039009
:10297000FFE743F60000C4F20200006800F40031F3
:102980000020B0EB514F0CD1FFE7FFF71FFD03997B
:10299000401A652804D3FFE703208DF81700C6E22C
:1029A000E7E71CE0FFF712FD0390FFE743F60000A6
:1029B000C4F20200006800F400310020B0EB514F77
:1029C0000CD0FFE7FFF702FD0399401A652804D3F6
:1029D000FFE703208DF81700A9E2E7E7FFE7FFE72D
:1029E000FFE7049800788007002840F19680FFE711
:1029F00043F60800C4F20200006810F00C0F13D078
:102A0000FFE743F60800C4F20200006800F00C0083
:102A100008282CD1FFE743F60400C4F20200006846
:102A20004002002823D4FFE743F60000C4F202006E
:102A3000006800F002010020B0EB510F09D0FFE761
:102A40000498C068012804D0FFE701208DF8170022
:102A50006DE243F60001C4F20201086820F0F800BC
:102A6000049A126940EAC2000860FFE754E0049843
:102A7000C06870B3FFE70021C4F24721012008605D
:102A8000FFF7A4FC0390FFE743F60000C4F2020046
:102A9000006800F002010020B0EB510F0CD1FFE7FD
:102AA000FFF794FC0399401A032804D3FFE703209F
:102AB0008DF817003BE2E7E743F60001C4F202019C
:102AC000086820F0F800049A126940EAC200086021
:102AD00021E00021C4F2472100200860FFF776FCC6
:102AE0000390FFE743F60000C4F20200006800F024
:102AF00002010020B0EB510F0CD0FFE7FFF766FC9E
:102B00000399401A032804D3FFE703208DF8170028
:102B10000DE2E7E7FFE7FFE7FFE70498007800072B
:102B200000284BD5FFE70498406918B3FFE740F64B
:102B30008061C4F2472101200860FFF747FC039041
:102B4000FFE743F67400C4F20200006800F00201DF
:102B50000020B0EB510F0CD1FFE7FFF737FC0399D2
:102B6000401A032804D3FFE703208DF81700DEE1A5
:102B7000E7E722E040F68061C4F2472100200860C8
:102B8000FFF724FC0390FFE743F67400C4F2020051
:102B9000006800F002010020B0EB510F0CD0FFE7FD
:102BA000FFF714FC0399401A032804D3FFE703201E
:102BB0008DF81700BBE1E7E7FFE7FFE7049800782F
:102BC0004007002840F1CE80FFE700208DF8070085
:102BD00043F64000C4F202000068C000002815D48B
:102BE000FFE7FFE70020009043F64000C4F2020038
:102BF000016841F080510160006800F08050009051
:102C00000098FFE701208DF80700FFE747F200007A
:102C1000C4F200000068C005002822D4FFE747F294
:102C20000001C4F20001086840F480700860FFF7FA
:102C3000CDFB0390FFE747F20000C4F200000068FC
:102C4000C00500280CD4FFE7FFF7C0FB0399401A2A
:102C5000032804D3FFE703208DF8170067E1EAE7B4
:102C6000FFE7FFE704988068012809D1FFE743F6F2
:102C70007001C4F20201086840F0010008601FE022
:102C80000498806805280DD1FFE743F67001C4F26F
:102C90000201086840F004000860086840F0010084
:102CA00008600CE043F67001C4F20201086820F0ED
:102CB00001000860086820F004000860FFE7FFE7F3
:102CC000FFE704988068F8B1FFE7FFF77FFB039008
:102CD000FFE743F67000C4F20200006800F0020152
:102CE0000020B0EB510F0ED1FFE7FFF76FFB039908
:102CF000401A41F28931884204D3FFE703208DF85E
:102D0000170014E1E5E71EE0FFF760FB0390FFE723
:102D100043F67000C4F20200006800F002010020D7
:102D2000B0EB510F0ED0FFE7FFF750FB0399401AAD
:102D300041F28931884204D3FFE703208DF8170060
:102D4000F5E0E5E7FFE79DF80700012809D1FFE777
:102D500043F64001C4F20201086820F08050086088
:102D6000FFE7FFE704988069002800F0DC80FFE7B8
:102D700043F60800C4F20200006800F00C000828C6
:102D800000F08580FFE70498806902285CD1FFE7A6
:102D90006021C4F2472100200860FFF717FB039071
:102DA000FFE743F60000C4F20200006800F0007183
:102DB0000020B0EB516F0CD0FFE7FFF707FB039942
:102DC000401A032804D3FFE703208DF81700AEE074
:102DD000E7E70499C869D1F820C04B6A8A6A40EADB
:102DE0000C0040EA8310D2034FF6FF739A43A2F51A
:102DF00080321043C96A40EA016043F60401C4F21C
:102E0000020108606021C4F2472101200860FFF739
:102E1000DDFA0390FFE743F60000C4F20200006809
:102E200000F000710020B0EB516F0CD1FFE7FFF70D
:102E3000CDFA0399401A032804D3FFE703208DF845
:102E4000170074E0E7E721E06021C4F24721002089
:102E50000860FFF7BBFA0390FFE743F60000C4F2F7
:102E60000200006800F000710020B0EB516F0CD040
:102E7000FFE7FFF7ABFA0399401A032804D3FFE7F3
:102E800003208DF8170052E0E7E7FFE74AE00498D7
:102E90008069012804D1FFE701208DF8170046E082
:102EA00043F60400C4F202000068029004988069AE
:102EB000012831D0FFE7029800F480000499C96925
:102EC000884229D1FFE7029800F03F000499096A7F
:102ED000884221D1FFE7029847F6C0710840049963
:102EE000496AB0EB811F17D1FFE7029800F4403028
:102EF0000499896AC9034FF6FF729143A1F58031A5
:102F0000884209D1FFE7029800F070600499C96A0D
:102F1000B0EB016F04D0FFE701208DF8170006E049
:102F2000FFE7FFE7FFE700208DF81700FFE79DF8B8
:102F3000170006B080BD000080B582B001900198F6
:102F400000F084F802B080BDFFE7FEE780B58AB0EC
:102F5000002009900890079006900590FFE7002058
:102F6000049043F63000C4F20200016841F0800191
:102F70000160006800F0800004900498FFE7FFE71C
:102F80000020039043F63000C4F20200016841F0D3
:102F900001010160006800F0010003900398FFE761
:102FA0000020C4F2020002904FF4F8710091002258
:102FB0000192FFF7F3F9009A019902980592012214
:102FC00006920791089105A9FFF70CF80AB080BD99
:102FD000FFE7FEE7FFE7FEE788B00790069105925E
:102FE000079800F0070004900498C0F10700052836
:102FF00003D3FFE70420019004E00498C0F1070028
:103000000190FFE70198039004980430062803D844
:10301000FFE70020009003E0049803380090FFE7EA
:103020000098029006980399012202FA01F10139F1
:103030000840029B984005999A40013A1140084384
:1030400008B07047704700007047000080B582B03C
:10305000009000980138B0F1807F03D3FFE7012092
:10306000019019E0009801384EF21401CEF20001EF
:1030700008604FF0FF300F2100F08AF84EF218017F
:10308000CEF20001002008604EF21002CEF20002E3
:10309000072111600190FFE7019802B080BD000098
:1030A00080B5FFF799F980BD80B594B008A83021AC
:1030B000FDF7D2F900200790069005900490039048
:1030C000FFE70020029043F64000C4F202000168CE
:1030D00041F080510160006800F080500290029839
:1030E000FFE7FFE70020019047F20000C4F2000074
:1030F000016841F480410160006800F48040019063
:103100000198FFE7012008904FF4803009900220D9
:103110000E904FF480010F91192110914FF4A87176
:10312000119112900420139008A8FFF7A5FB18B185
:10313000FFE7FEF731FFFFE70F2003900220049026
:10314000002005904FF4A05006904FF48050079057
:1031500003A80521FFF7EAF918B1FFE7FEF71CFF06
:10316000FFE714B080BD00004EF68851CEF200019A
:10317000086840F47000086070470000FFE7FEE751
:103180004EF60C50CEF200000068C0F302207047EB
:1031900082B08DF8070000919DF9070000280AD43D
:1031A000FFE7009800019DF907104EF20042CEF2B1
:1031B000000288540BE0009800019DF8071001F010
:1031C0000F014EF61452CEF200028854FFE702B00F
:1031D0007047000083B00290029800F00700009052
:1031E0004EF60C51CEF200010868019001984FF69E
:1031F000FF02104001900198009A40EA022000224C
:10320000C0F2FA52104301900198086003B0704771
:1032100080B588B000200790FFF7D8F80690FFF738
:10322000E9F8FFF741FFFFF791FEFFE7FFF7CEF860
:103230000590059840F2A411C2F200010968401AF5
:10324000C828C0F0A180FFE740F2A110C2F2000040
:103250000078052800F39880FFE7059840F2A41154
:10326000C2F20001086040F2A110C2F20000007832
:103270000146039104282ED80399DFE801F0030BDF
:10328000131B23000020C4F2020010210122FFF7CB
:1032900085F820E00020C4F2020020210122FFF77F
:1032A0007DF818E00020C4F2020040210122FFF75F
:1032B00075F810E00020C4F2020080210122FFF71F
:1032C0006DF808E00020C4F202004FF48071012282
:1032D000FFF764F8FFE73220FEF762FE40F2A1102C
:1032E000C2F2000000780146029104282ED802990B
:1032F000DFE801F0030B131B23000020C4F20200DF
:1033000010210022FFF74AF820E00020C4F202005A
:1033100020210022FFF742F818E00020C4F202004A
:1033200040210022FFF73AF810E00020C4F202002A
:1033300080210022FFF732F808E00020C4F20200EA
:103340004FF480710022FFF729F8FFE740F2A11146
:10335000C2F200010878013043F23432C3F2333252
:10336000A0FB023202EB8202801A08703220FEF7C4
:1033700017FEFFF72BF80699411A43F6D050C0F616
:103380000000FDF75DF8FFE740F2A010C2F2000078
:10339000007880BBFFE7059840F21001C2F20001FF
:1033A0000968884227D3FFE70020C4F202004FF4E7
:1033B000807101220192FEF7F1FF01980599C83151
:1033C00040F29C12C2F200021160059947F230529D
:1033D000114440F21002C2F20002116040F2A0114A
:1033E000C2F20001087040F26461C2F20001086894
:1033F00001300860FFE740F2A010C2F20000007840
:10340000C8B1FFE7059840F29C11C2F200010968BB
:10341000884210D3FFE70020C4F202004FF480710D
:1034200000220092FEF7BAFF009840F2A011C2F20B
:1034300000010870FFE7F9E65FEA400C08BF91F071
:10344000000F4FEA8C234FEAC12243EA51514FEA61
:103450001C5018BF00F5F0404FEA300018BF41F093
:1034600000415FEA6C5C00F02980BCF1FF3F08BFBF
:1034700040F080407047130C06BF12044FF0100C50
:103480004FF0000C130E04BF12020CF1080C130FC6
:1034900004BF12010CF1040C930F04BF92000CF155
:1034A000020CD30F04BF52000CF1010C11464FF077
:1034B0000002A0F11F00A0EB0C00704711F0004FBC
:1034C00008BF704731F000413FF4D5AF0B0C06BF89
:1034D00009044FF0100C4FF0000C0B0E04BF090252
:1034E0000CF1080C0B0F04BF09010CF1040C8B0F3D
:1034F00004BF89000CF1020CCB0F04BF49000CF192
:10350000010CCCF1200322FA03F341EA030102FA91
:103510000CF2A0EB0C0000F10100704723F07F4794
:1035200020F07F4C80EA030000F00040ACEB070382
:1035300003F57C5303F1FF032DE9804909B44FEAF9
:10354000144324EA03484FEA154B25EA0B4E0FF2C9
:10355000042606EB13273E7803FB0667C7F5000732
:1035600007FB06F64FEAD64606F102064FEA543745
:1035700007FB066CCCF1005C4FEA1C472CEA074CB9
:103580000CFB06F507FB06F404EB15464FEA96160E
:1035900049085FEA320234BF00204FF000404FEA92
:1035A000D13706FB07FC4FEA1C4C0CFB0BF7D21B78
:1035B00003FB0CF761EB07010CFB0EF7B0EB0740C8
:1035C00072EB17420CFB08F734BFA2EB0742B2EBD9
:1035D000074261EB17414FEA0C444FEA910706FBA3
:1035E00007FC4FEA1C4C0CFB0BF7B0EBC74072EB2F
:1035F000573203FB0CF734BFA2EBC742B2EBC74212
:1036000061EB57310CFB0EF7B0EBC70072EB577252
:103610000CFB08F734BFA2EBC702B2EBC70261EBA9
:1036200057714FEA816141EA92114FEA826242EAA0
:1036300090124FEA806004EBCC04039F4FEAD1372D
:1036400006FB07FC4FEA1C4C0CFB0BF7D21B03FBE1
:103650000CF761EB07010CFB0EF7B0EB074072EBC8
:1036600017420CFB08F734BFA2EB0742B2EB07424C
:1036700061EB17414FEA8C5504EB9C244FEA91070C
:1036800006FB07FC4FEA1C4C0CFB0BF7B0EBC740EA
:1036900072EB573203FB0CF734BFA2EBC742B2EB1D
:1036A000C74261EB57310CFB0EF7B0EBC70072EB72
:1036B00057720CFB08F734BFA2EBC702B2EBC7028C
:1036C00061EB57714FEA816141EA92114FEA8262E0
:1036D00042EA90124FEA806015EB4C2544F1000459
:1036E0004FEAD13706FB07FC4FEA1C4C0CFB0BF7EB
:1036F000D21B03FB0CF761EB07010CFB0EF7B0EBE1
:10370000074072EB17420CFB08F734BFA2EB0742ED
:10371000B2EB074261EB17414FEA813141EA924136
:103720004FEA823242EA90424FEA80304FEA0C760A
:1037300015EB1C1544F1000448EA03434EEA0B481C
:103740004FF0000EB2EB080C71EB030724BF62468A
:1037500039464EEB0E0E4FF0000B00185241494116
:103760004BEB0B0BB2EB080C71EB03077BF1000B7F
:1037700024BF624639464EEB0E0E4FF0000B001888
:10378000524149414BEB0B0BB2EB080C71EB0307B9
:103790007BF1000B24BF624639464EEB0E0E51EA18
:1037A000020718BF46F0010616EB0E7655F100022F
:1037B00054F1000103D5BDE88901BDE80088BDE8EA
:1037C0008901BDE80048B619524141EB0101A3F15E
:1037D0000103704780807F7E7D7C7B7A7978777665
:1037E00076757473727171706F6E6E6D6C6C6B6ADE
:1037F0006A6968686766666564646363626161607C
:10380000605F5F5E5E5D5D5C5C5B5B5A5A595958F8
:103810005857575656555555545453535252525162
:10382000515050504F4F4F4E4E4D4D4D4C4C4C4BB8
:103830004B4B4A4A4A4949494848484747474746FF
:10384000464645454544444444434343434242423B
:10385000424141419C46002B30D477002BD04FEAA7
:1038600037071CB503B44FF010004FF01001BAF148
:10387000000F06D0BCF1000FDCBF40F0080040F0A4
:1038800008014FF000000FBCBDE810400BF1010B28
:10389000BBF1010F08BF5FEA170722BF12F1010257
:1038A00011F101014FF0004143F1000300F000402D
:1038B00043EA00007047F9D35708D0E746EA0646C6
:1038C0004FEA164613F1400F1FDD13F1200FDFBF43
:1038D00016430A46002120335B42BED0C3F12007C5
:1038E00046EA06464FEA164602FA07F746EA070690
:1038F00022FA03F2C3F1200701FA07F742EA0702AE
:1039000021FA03F14FF00003A7E746EA020646EA70
:1039100006464FEA164646EA0106BCBF46EA064698
:10392000360C4FF000034FF000024FF0000194E717
:103930002DE9804C70B49A46934691E8380007C848
:1039400031EA400C48BF34EA430C03D5FFF7E6FDEB
:10395000FFF780FFF0BCBDE8008C2DE9804C70B40F
:103960009A46934691E8380007C810F0804F08BF88
:1039700013F0804F03D100F005F8FFF76BFFF0BCA8
:10398000BDE8008C20F07F4723F07F4C80EA0300E5
:1039900000F0004007EB0C03A3F57C53A3F1FE03FA
:1039A00092F0000F00F0B38095F0000F00F07780E8
:1039B0002DE901494FEA114021EA00484FEA144637
:1039C00024EA064700FB06FC08FB06F607FB08F89E
:1039D00018EB06484CEB164C00FB07F718EB0748B2
:1039E0004CEB17404FEA124B22EA0B4E4FEA1546BA
:1039F00025EA06470BFB06FC0EFB06F607FB0EFE50
:103A00001EEB064E4CEB164C0BFB07F71EEB074E5E
:103A10004CEB174B18EB0B0840F1000018EB0E0BAA
:103A200058EB000840F100008F1A4FF000014FF0F2
:103A300000063CBFC943661B14BFB5EB040C002154
:103A40003CBFC943F61B4FEA174427EA04454FEA37
:103A50001C472CEA074C04FB076205FB07F70CFB2D
:103A600005F616EB074642EB174204FB0CFC16EB7F
:103A70000C4642EB1C421BEB060658EB020241418E
:103A80004EEA8E0E46EA9E0601D5BDE80189B619BA
:103A9000524141EB0101A3F10103BDE801894FEA65
:103AA000144524EA05464FEA114721EA074C05FB75
:103AB00007F406FB07F70CFB06F111EB074144EB9B
:103AC000174405FB0CFC11EB0C4144EB1C444FEA82
:103AD000124722EA074C05FB07F206FB07F70CFB2F
:103AE00006F616EB074642EB174205FB0CFC16EBFD
:103AF0000C4642EB1C456A1854F1000148BF704760
:103B0000B619524141EB0101A3F10103704795F051
:103B1000000F37D04FEA114221EA02464FEA14471C
:103B200024EA074C02FB07F106FB07F70CFB06F43F
:103B300014EB074441EB174102FB0CFC14EB0C4463
:103B400041EB1C414FEA154725EA074C02FB07F5FC
:103B500006FB07F70CFB06F616EB074645EB174589
:103B600002FB0CFC16EB0C4645EB1C42121951F102
:103B7000000148BF7047B619524141EB0101A3F162
:103B8000010370474FEA144524EA05464FEA1147FE
:103B900021EA074C05FB07F106FB07F70CFB06F2D1
:103BA00012EB074241EB174105FB0CFC12EB0C42F8
:103BB00051EB1C414FF0000648BF7047921841EB93
:103BC0000101A3F10103704703B40198410000987B
:103BD00050EAC12018BF04204A0D18BF40F0010070
:103BE00040F2FF72B2EB515F08BF40F002000128C3
:103BF00008BF052002B0704730380A2801D20120E2
:103C00007047002070478A68002A02DC0022FDF716
:103C100031BD521E8A604A68C0B2531C4B6010709E
:103C20007047000010B500290AD00878002807D096
:103C300005487844FEF7B4F8002801D0002010BDF4
:103C40000248784410BD0000C2010000BA01000023
:103C500010B500290AD00878002807D00548784414
:103C6000FEF79EF8002801D0002010BD02487844DD
:103C700010BD0000B2010000AA010000F1EE100A20
:103C80004FF6FF71C0F2C03120EA010040F04070F1
:103C9000E1EE100A7047FDF725B8FDF759B90000AD
:103CA0000000000000000000303132333435363778
:103CB0003839414243444546403058003031323370
:103CC0003435363738396162636465664030780070
:103CD00004000008000000000000000200010000D5
:103CE00010303132333435363738396162636465C8
:103CF00066787000303132333435363738394142E6
:103D0000434445465850003A7474003A7474003A7B
:103D10007474000002400000000000A000000000D9
:103D200005400000000000C8000000000C4000003A
:103D30000000409C00000000194000000020BCBEB4
:103D40000000000034400000BFC91B8E00000004CA
:103D5000B5400000504BCFD06607E2CF0100000015
:103D60006C4100003E8251AADFEEA7340100000042
:103D7000D9420000DCB5A0E23A301F97FFFFFFFFF9
:103D8000B4450000FD25A0C8E9A3C14FFFFFFFFF18
:103D9000FF3F00000000008000000000FF3F000027
:103DA0000000008000000000000000000000000093
:103DB0000102030406070809010001014000000098
:103DC000C0010020C00500204006002000000000C7
:103DD00025640000403F0008000000204000000073
:103DE000EC010008803F0008400000203012000075
:103DF0000C0200081C00000043000000F8FFFFFF59
:103E00000C0000000E0000000F0000002E0000005B
:103E10001001000043000000F8FFFFFF0040404099
:103E2000404040404040414141414140404040408D
:103E30004040404040404040404040404005020239
:103E400002020202020202020202020202202020F8
:103E50002020202020202002020202020202909054
:103E60009090909010101010101010101010101052
:103E700010101010101010100202020202028888A6
:103E800088888888080808080808080808080808B2
:103E9000080808080808080802020202400000009A
:103EA0000000000000000000000000000000000012
:103EB0000000000000000000000000000000000002
:103EC00000000000000000000000000000000000F2
:103ED00000000000000000000000000000000000E2
:103EE00000000000000000000000000000000000D2
:103EF00000000000000000000000000000000000C2
:103F000000000000000000000000000000000000B1
:103F100000000000000000000000000000000000A1
:103F20000000000000000000000000000000000091
:103F30000000000000000000000000000000000081
:103F40000000000000000000000000000024F40059
:103F5000B80B00000100000010000000000000008D
:103F60000000000000000000000000000000000051
:103F70000000000000000000000000000000000041
:040000050800018965
:00000001FF
